{
  "contractName": "Exchange",
  "abi": [
    {
      "inputs": [],
      "stateMutability": "nonpayable",
      "type": "constructor"
    },
    {
      "anonymous": false,
      "inputs": [
        {
          "indexed": false,
          "internalType": "uint256",
          "name": "id",
          "type": "uint256"
        },
        {
          "indexed": false,
          "internalType": "address",
          "name": "user",
          "type": "address"
        },
        {
          "indexed": false,
          "internalType": "address",
          "name": "tokenReceive",
          "type": "address"
        },
        {
          "indexed": false,
          "internalType": "uint256",
          "name": "amountReceive",
          "type": "uint256"
        },
        {
          "indexed": false,
          "internalType": "address",
          "name": "tokenGive",
          "type": "address"
        },
        {
          "indexed": false,
          "internalType": "uint256",
          "name": "amountGive",
          "type": "uint256"
        },
        {
          "indexed": false,
          "internalType": "uint256",
          "name": "timestamp",
          "type": "uint256"
        }
      ],
      "name": "CancelOrder",
      "type": "event"
    },
    {
      "anonymous": false,
      "inputs": [
        {
          "indexed": false,
          "internalType": "address",
          "name": "tokenAddress",
          "type": "address"
        },
        {
          "indexed": false,
          "internalType": "address",
          "name": "userAddress",
          "type": "address"
        },
        {
          "indexed": false,
          "internalType": "uint256",
          "name": "amount",
          "type": "uint256"
        },
        {
          "indexed": false,
          "internalType": "uint256",
          "name": "balance",
          "type": "uint256"
        }
      ],
      "name": "Deposit",
      "type": "event"
    },
    {
      "anonymous": false,
      "inputs": [
        {
          "indexed": false,
          "internalType": "uint256",
          "name": "id",
          "type": "uint256"
        },
        {
          "indexed": false,
          "internalType": "address",
          "name": "user",
          "type": "address"
        },
        {
          "indexed": false,
          "internalType": "address",
          "name": "tokenReceive",
          "type": "address"
        },
        {
          "indexed": false,
          "internalType": "uint256",
          "name": "amountReceive",
          "type": "uint256"
        },
        {
          "indexed": false,
          "internalType": "address",
          "name": "tokenGive",
          "type": "address"
        },
        {
          "indexed": false,
          "internalType": "uint256",
          "name": "amountGive",
          "type": "uint256"
        },
        {
          "indexed": false,
          "internalType": "uint256",
          "name": "timestamp",
          "type": "uint256"
        }
      ],
      "name": "NewOrder",
      "type": "event"
    },
    {
      "anonymous": false,
      "inputs": [
        {
          "indexed": false,
          "internalType": "uint256",
          "name": "id",
          "type": "uint256"
        },
        {
          "indexed": false,
          "internalType": "address",
          "name": "user",
          "type": "address"
        },
        {
          "indexed": false,
          "internalType": "address",
          "name": "tokenReceive",
          "type": "address"
        },
        {
          "indexed": false,
          "internalType": "uint256",
          "name": "amountReceive",
          "type": "uint256"
        },
        {
          "indexed": false,
          "internalType": "address",
          "name": "tokenGive",
          "type": "address"
        },
        {
          "indexed": false,
          "internalType": "uint256",
          "name": "amountGive",
          "type": "uint256"
        },
        {
          "indexed": false,
          "internalType": "address",
          "name": "userFill",
          "type": "address"
        },
        {
          "indexed": false,
          "internalType": "uint256",
          "name": "timestamp",
          "type": "uint256"
        }
      ],
      "name": "Trade",
      "type": "event"
    },
    {
      "anonymous": false,
      "inputs": [
        {
          "indexed": false,
          "internalType": "address",
          "name": "tokenAddress",
          "type": "address"
        },
        {
          "indexed": false,
          "internalType": "address",
          "name": "userAddress",
          "type": "address"
        },
        {
          "indexed": false,
          "internalType": "uint256",
          "name": "amount",
          "type": "uint256"
        },
        {
          "indexed": false,
          "internalType": "uint256",
          "name": "balance",
          "type": "uint256"
        }
      ],
      "name": "Withdraw",
      "type": "event"
    },
    {
      "stateMutability": "payable",
      "type": "fallback",
      "payable": true
    },
    {
      "inputs": [],
      "name": "orderCount",
      "outputs": [
        {
          "internalType": "uint256",
          "name": "",
          "type": "uint256"
        }
      ],
      "stateMutability": "view",
      "type": "function",
      "constant": true
    },
    {
      "inputs": [
        {
          "internalType": "uint256",
          "name": "",
          "type": "uint256"
        }
      ],
      "name": "orders",
      "outputs": [
        {
          "internalType": "uint256",
          "name": "id",
          "type": "uint256"
        },
        {
          "internalType": "address",
          "name": "creator",
          "type": "address"
        },
        {
          "internalType": "address",
          "name": "tokenAddressReceive",
          "type": "address"
        },
        {
          "internalType": "address",
          "name": "tokenAddressGive",
          "type": "address"
        },
        {
          "internalType": "uint256",
          "name": "amountReceive",
          "type": "uint256"
        },
        {
          "internalType": "uint256",
          "name": "amountGive",
          "type": "uint256"
        },
        {
          "internalType": "uint256",
          "name": "timestamp",
          "type": "uint256"
        }
      ],
      "stateMutability": "view",
      "type": "function",
      "constant": true
    },
    {
      "inputs": [
        {
          "internalType": "uint256",
          "name": "",
          "type": "uint256"
        }
      ],
      "name": "ordersCancelled",
      "outputs": [
        {
          "internalType": "bool",
          "name": "",
          "type": "bool"
        }
      ],
      "stateMutability": "view",
      "type": "function",
      "constant": true
    },
    {
      "inputs": [
        {
          "internalType": "uint256",
          "name": "",
          "type": "uint256"
        }
      ],
      "name": "ordersFilled",
      "outputs": [
        {
          "internalType": "bool",
          "name": "",
          "type": "bool"
        }
      ],
      "stateMutability": "view",
      "type": "function",
      "constant": true
    },
    {
      "inputs": [
        {
          "internalType": "address",
          "name": "_userAddress",
          "type": "address"
        }
      ],
      "name": "getEtherBalance",
      "outputs": [
        {
          "internalType": "uint256",
          "name": "",
          "type": "uint256"
        }
      ],
      "stateMutability": "view",
      "type": "function",
      "constant": true
    },
    {
      "inputs": [
        {
          "internalType": "address",
          "name": "_tokenAddress",
          "type": "address"
        },
        {
          "internalType": "address",
          "name": "_userAddress",
          "type": "address"
        }
      ],
      "name": "getTokenBalance",
      "outputs": [
        {
          "internalType": "uint256",
          "name": "",
          "type": "uint256"
        }
      ],
      "stateMutability": "view",
      "type": "function",
      "constant": true
    },
    {
      "inputs": [],
      "name": "depositEther",
      "outputs": [],
      "stateMutability": "nonpayable",
      "type": "function"
    },
    {
      "inputs": [
        {
          "internalType": "uint256",
          "name": "_amount",
          "type": "uint256"
        }
      ],
      "name": "withdrawEther",
      "outputs": [],
      "stateMutability": "nonpayable",
      "type": "function"
    },
    {
      "inputs": [
        {
          "internalType": "address",
          "name": "_tokenAddress",
          "type": "address"
        },
        {
          "internalType": "uint256",
          "name": "_amount",
          "type": "uint256"
        }
      ],
      "name": "depositToken",
      "outputs": [],
      "stateMutability": "nonpayable",
      "type": "function"
    },
    {
      "inputs": [
        {
          "internalType": "address",
          "name": "_tokenAddress",
          "type": "address"
        },
        {
          "internalType": "uint256",
          "name": "_amount",
          "type": "uint256"
        }
      ],
      "name": "withdrawToken",
      "outputs": [],
      "stateMutability": "nonpayable",
      "type": "function"
    },
    {
      "inputs": [
        {
          "internalType": "address",
          "name": "_tokenReceive",
          "type": "address"
        },
        {
          "internalType": "uint256",
          "name": "_amountReceive",
          "type": "uint256"
        },
        {
          "internalType": "address",
          "name": "_tokenGive",
          "type": "address"
        },
        {
          "internalType": "uint256",
          "name": "_amountGive",
          "type": "uint256"
        }
      ],
      "name": "createOrder",
      "outputs": [],
      "stateMutability": "nonpayable",
      "type": "function"
    },
    {
      "inputs": [
        {
          "internalType": "uint256",
          "name": "_id",
          "type": "uint256"
        }
      ],
      "name": "cancelOrder",
      "outputs": [],
      "stateMutability": "nonpayable",
      "type": "function"
    },
    {
      "inputs": [
        {
          "internalType": "uint256",
          "name": "_id",
          "type": "uint256"
        }
      ],
      "name": "fillOrder",
      "outputs": [],
      "stateMutability": "nonpayable",
      "type": "function"
    }
  ],
  "bytecode": "0x608060405234801561001057600080fd5b5060006004819055506125ef806100286000396000f3fe6080604052600436106100c65760003560e01c806398ea5fca1161007f578063c489744b11610059578063c489744b1461043a578063c72abc5014610477578063dc45d08e146104b4578063fc05ca31146104f1576100c7565b806398ea5fca146103b75780639e281a98146103ce578063a85c38ef146103f7576100c7565b806321168620146102ab5780632453ffa8146102e8578063338b5dea146103135780633bed33ce1461033c578063514fcac71461036557806367b830ad1461038e576100c7565b5b61015c346000808073ffffffffffffffffffffffffffffffffffffffff1673ffffffffffffffffffffffffffffffffffffffff168152602001908152602001600020600061011361051a565b73ffffffffffffffffffffffffffffffffffffffff1673ffffffffffffffffffffffffffffffffffffffff1681526020019081526020016000205461052290919063ffffffff16565b6000808073ffffffffffffffffffffffffffffffffffffffff1673ffffffffffffffffffffffffffffffffffffffff16815260200190815260200160002060006101a461051a565b73ffffffffffffffffffffffffffffffffffffffff1673ffffffffffffffffffffffffffffffffffffffff168152602001908152602001600020819055507fdcbc1c05240f31ff3ad067ef1ee35ce4997762752e3a095284754544f4c709d7600061020d61051a565b346000808073ffffffffffffffffffffffffffffffffffffffff1673ffffffffffffffffffffffffffffffffffffffff168152602001908152602001600020600061025661051a565b73ffffffffffffffffffffffffffffffffffffffff1673ffffffffffffffffffffffffffffffffffffffff168152602001908152602001600020546040516102a19493929190611d17565b60405180910390a1005b3480156102b757600080fd5b506102d260048036038101906102cd9190611d8d565b61054e565b6040516102df9190611dd5565b60405180910390f35b3480156102f457600080fd5b506102fd61056e565b60405161030a9190611df0565b60405180910390f35b34801561031f57600080fd5b5061033a60048036038101906103359190611e37565b610574565b005b34801561034857600080fd5b50610363600480360381019061035e9190611d8d565b61088f565b005b34801561037157600080fd5b5061038c60048036038101906103879190611d8d565b610b87565b005b34801561039a57600080fd5b506103b560048036038101906103b09190611d8d565b610e27565b005b3480156103c357600080fd5b506103cc611007565b005b3480156103da57600080fd5b506103f560048036038101906103f09190611e37565b611009565b005b34801561040357600080fd5b5061041e60048036038101906104199190611d8d565b6113b5565b6040516104319796959493929190611e77565b60405180910390f35b34801561044657600080fd5b50610461600480360381019061045c9190611ee6565b611457565b60405161046e9190611df0565b60405180910390f35b34801561048357600080fd5b5061049e60048036038101906104999190611d8d565b61154c565b6040516104ab9190611dd5565b60405180910390f35b3480156104c057600080fd5b506104db60048036038101906104d69190611f26565b61156c565b6040516104e89190611df0565b60405180910390f35b3480156104fd57600080fd5b5061051860048036038101906105139190611f53565b6115f1565b005b600033905090565b60008082846105319190611fe9565b9050838110156105445761054361203f565b5b8091505092915050565b60036020528060005260406000206000915054906101000a900460ff1681565b60045481565b600073ffffffffffffffffffffffffffffffffffffffff168273ffffffffffffffffffffffffffffffffffffffff1614156105e4576040517f08c379a00000000000000000000000000000000000000000000000000000000081526004016105db906120cb565b60405180910390fd5b8173ffffffffffffffffffffffffffffffffffffffff166323b872dd61060861051a565b30846040518463ffffffff1660e01b8152600401610628939291906120eb565b6020604051808303816000875af1158015610647573d6000803e3d6000fd5b505050506040513d601f19601f8201168201806040525081019061066b919061214e565b6106aa576040517f08c379a00000000000000000000000000000000000000000000000000000000081526004016106a1906121c7565b60405180910390fd5b61073f816000808573ffffffffffffffffffffffffffffffffffffffff1673ffffffffffffffffffffffffffffffffffffffff16815260200190815260200160002060006106f661051a565b73ffffffffffffffffffffffffffffffffffffffff1673ffffffffffffffffffffffffffffffffffffffff1681526020019081526020016000205461052290919063ffffffff16565b6000808473ffffffffffffffffffffffffffffffffffffffff1673ffffffffffffffffffffffffffffffffffffffff168152602001908152602001600020600061078761051a565b73ffffffffffffffffffffffffffffffffffffffff1673ffffffffffffffffffffffffffffffffffffffff168152602001908152602001600020819055507fdcbc1c05240f31ff3ad067ef1ee35ce4997762752e3a095284754544f4c709d7826107ef61051a565b836000808773ffffffffffffffffffffffffffffffffffffffff1673ffffffffffffffffffffffffffffffffffffffff168152602001908152602001600020600061083861051a565b73ffffffffffffffffffffffffffffffffffffffff1673ffffffffffffffffffffffffffffffffffffffff168152602001908152602001600020546040516108839493929190611d17565b60405180910390a15050565b806000808073ffffffffffffffffffffffffffffffffffffffff1673ffffffffffffffffffffffffffffffffffffffff16815260200190815260200160002060006108d861051a565b73ffffffffffffffffffffffffffffffffffffffff1673ffffffffffffffffffffffffffffffffffffffff168152602001908152602001600020541015610954576040517f08c379a000000000000000000000000000000000000000000000000000000000815260040161094b90612233565b60405180910390fd5b6109e9816000808073ffffffffffffffffffffffffffffffffffffffff1673ffffffffffffffffffffffffffffffffffffffff16815260200190815260200160002060006109a061051a565b73ffffffffffffffffffffffffffffffffffffffff1673ffffffffffffffffffffffffffffffffffffffff168152602001908152602001600020546117f290919063ffffffff16565b6000808073ffffffffffffffffffffffffffffffffffffffff1673ffffffffffffffffffffffffffffffffffffffff1681526020019081526020016000206000610a3161051a565b73ffffffffffffffffffffffffffffffffffffffff1673ffffffffffffffffffffffffffffffffffffffff16815260200190815260200160002081905550610a7761051a565b73ffffffffffffffffffffffffffffffffffffffff166108fc829081150290604051600060405180830381858888f19350505050158015610abc573d6000803e3d6000fd5b507ff341246adaac6f497bc2a656f546ab9e182111d630394f0c57c710a59a2cb5676000610ae861051a565b836000808073ffffffffffffffffffffffffffffffffffffffff1673ffffffffffffffffffffffffffffffffffffffff1681526020019081526020016000206000610b3161051a565b73ffffffffffffffffffffffffffffffffffffffff1673ffffffffffffffffffffffffffffffffffffffff16815260200190815260200160002054604051610b7c9493929190611d17565b60405180910390a150565b600081118015610b9957506004548111155b610bd8576040517f08c379a0000000000000000000000000000000000000000000000000000000008152600401610bcf9061229f565b60405180910390fd5b6000600160008381526020019081526020016000206040518060e0016040529081600082015481526020016001820160009054906101000a900473ffffffffffffffffffffffffffffffffffffffff1673ffffffffffffffffffffffffffffffffffffffff1673ffffffffffffffffffffffffffffffffffffffff1681526020016002820160009054906101000a900473ffffffffffffffffffffffffffffffffffffffff1673ffffffffffffffffffffffffffffffffffffffff1673ffffffffffffffffffffffffffffffffffffffff1681526020016003820160009054906101000a900473ffffffffffffffffffffffffffffffffffffffff1673ffffffffffffffffffffffffffffffffffffffff1673ffffffffffffffffffffffffffffffffffffffff16815260200160048201548152602001600582015481526020016006820154815250509050610d2c61051a565b73ffffffffffffffffffffffffffffffffffffffff16816020015173ffffffffffffffffffffffffffffffffffffffff1614610d9d576040517f08c379a0000000000000000000000000000000000000000000000000000000008152600401610d949061230b565b60405180910390fd5b60016002600084815260200190815260200160002060006101000a81548160ff0219169083151502179055507f8ad5af334aaf597f15dd597da702fda54fdf739d22e2c11afc21612c49cd38ec82610df361051a565b8360400151846080015185606001518660a0015142604051610e1b979695949392919061232b565b60405180910390a15050565b600081118015610e3957506004548111155b610e78576040517f08c379a0000000000000000000000000000000000000000000000000000000008152600401610e6f9061229f565b60405180910390fd5b6002600082815260200190815260200160002060009054906101000a900460ff1615610ed9576040517f08c379a0000000000000000000000000000000000000000000000000000000008152600401610ed0906123e6565b60405180910390fd5b6003600082815260200190815260200160002060009054906101000a900460ff1615610f3a576040517f08c379a0000000000000000000000000000000000000000000000000000000008152600401610f3190612452565b60405180910390fd5b6000600160008381526020019081526020016000209050610fd781600001548260010160009054906101000a900473ffffffffffffffffffffffffffffffffffffffff168360020160009054906101000a900473ffffffffffffffffffffffffffffffffffffffff1684600401548560030160009054906101000a900473ffffffffffffffffffffffffffffffffffffffff168660050154611819565b60016003600084815260200190815260200160002060006101000a81548160ff0219169083151502179055505050565b565b600073ffffffffffffffffffffffffffffffffffffffff168273ffffffffffffffffffffffffffffffffffffffff161415611079576040517f08c379a0000000000000000000000000000000000000000000000000000000008152600401611070906120cb565b60405180910390fd5b806000808473ffffffffffffffffffffffffffffffffffffffff1673ffffffffffffffffffffffffffffffffffffffff16815260200190815260200160002060006110c261051a565b73ffffffffffffffffffffffffffffffffffffffff1673ffffffffffffffffffffffffffffffffffffffff16815260200190815260200160002054101561113e576040517f08c379a0000000000000000000000000000000000000000000000000000000008152600401611135906124be565b60405180910390fd5b6111d3816000808573ffffffffffffffffffffffffffffffffffffffff1673ffffffffffffffffffffffffffffffffffffffff168152602001908152602001600020600061118a61051a565b73ffffffffffffffffffffffffffffffffffffffff1673ffffffffffffffffffffffffffffffffffffffff168152602001908152602001600020546117f290919063ffffffff16565b6000808473ffffffffffffffffffffffffffffffffffffffff1673ffffffffffffffffffffffffffffffffffffffff168152602001908152602001600020600061121b61051a565b73ffffffffffffffffffffffffffffffffffffffff1673ffffffffffffffffffffffffffffffffffffffff168152602001908152602001600020819055508173ffffffffffffffffffffffffffffffffffffffff1663a9059cbb61127d61051a565b836040518363ffffffff1660e01b815260040161129b9291906124de565b6020604051808303816000875af11580156112ba573d6000803e3d6000fd5b505050506040513d601f19601f820116820180604052508101906112de919061214e565b6112eb576112ea61203f565b5b7ff341246adaac6f497bc2a656f546ab9e182111d630394f0c57c710a59a2cb5678261131561051a565b836000808773ffffffffffffffffffffffffffffffffffffffff1673ffffffffffffffffffffffffffffffffffffffff168152602001908152602001600020600061135e61051a565b73ffffffffffffffffffffffffffffffffffffffff1673ffffffffffffffffffffffffffffffffffffffff168152602001908152602001600020546040516113a99493929190611d17565b60405180910390a15050565b60016020528060005260406000206000915090508060000154908060010160009054906101000a900473ffffffffffffffffffffffffffffffffffffffff16908060020160009054906101000a900473ffffffffffffffffffffffffffffffffffffffff16908060030160009054906101000a900473ffffffffffffffffffffffffffffffffffffffff16908060040154908060050154908060060154905087565b60008073ffffffffffffffffffffffffffffffffffffffff168373ffffffffffffffffffffffffffffffffffffffff1614156114c8576040517f08c379a00000000000000000000000000000000000000000000000000000000081526004016114bf906120cb565b60405180910390fd5b6000808473ffffffffffffffffffffffffffffffffffffffff1673ffffffffffffffffffffffffffffffffffffffff16815260200190815260200160002060008373ffffffffffffffffffffffffffffffffffffffff1673ffffffffffffffffffffffffffffffffffffffff16815260200190815260200160002054905092915050565b60026020528060005260406000206000915054906101000a900460ff1681565b60008060008073ffffffffffffffffffffffffffffffffffffffff1673ffffffffffffffffffffffffffffffffffffffff16815260200190815260200160002060008373ffffffffffffffffffffffffffffffffffffffff1673ffffffffffffffffffffffffffffffffffffffff168152602001908152602001600020549050919050565b611607600160045461052290919063ffffffff16565b6004819055506040518060e00160405280600454815260200161162861051a565b73ffffffffffffffffffffffffffffffffffffffff1681526020018573ffffffffffffffffffffffffffffffffffffffff1681526020018373ffffffffffffffffffffffffffffffffffffffff168152602001848152602001828152602001428152506001600060045481526020019081526020016000206000820151816000015560208201518160010160006101000a81548173ffffffffffffffffffffffffffffffffffffffff021916908373ffffffffffffffffffffffffffffffffffffffff16021790555060408201518160020160006101000a81548173ffffffffffffffffffffffffffffffffffffffff021916908373ffffffffffffffffffffffffffffffffffffffff16021790555060608201518160030160006101000a81548173ffffffffffffffffffffffffffffffffffffffff021916908373ffffffffffffffffffffffffffffffffffffffff1602179055506080820151816004015560a0820151816005015560c082015181600601559050507f850f2cb17d7daa3735cdb35e4d711f15a895ee8f2323731b6fa4ec2eae1b78e96004546117cc61051a565b86868686426040516117e4979695949392919061232b565b60405180910390a150505050565b6000828211156118055761180461203f565b5b81836118119190612507565b905092915050565b6118ae836000808773ffffffffffffffffffffffffffffffffffffffff1673ffffffffffffffffffffffffffffffffffffffff168152602001908152602001600020600061186561051a565b73ffffffffffffffffffffffffffffffffffffffff1673ffffffffffffffffffffffffffffffffffffffff168152602001908152602001600020546117f290919063ffffffff16565b6000808673ffffffffffffffffffffffffffffffffffffffff1673ffffffffffffffffffffffffffffffffffffffff16815260200190815260200160002060006118f661051a565b73ffffffffffffffffffffffffffffffffffffffff1673ffffffffffffffffffffffffffffffffffffffff168152602001908152602001600020819055506119c2836000808773ffffffffffffffffffffffffffffffffffffffff1673ffffffffffffffffffffffffffffffffffffffff16815260200190815260200160002060008873ffffffffffffffffffffffffffffffffffffffff1673ffffffffffffffffffffffffffffffffffffffff1681526020019081526020016000205461052290919063ffffffff16565b6000808673ffffffffffffffffffffffffffffffffffffffff1673ffffffffffffffffffffffffffffffffffffffff16815260200190815260200160002060008773ffffffffffffffffffffffffffffffffffffffff1673ffffffffffffffffffffffffffffffffffffffff16815260200190815260200160002081905550611ad6816000808573ffffffffffffffffffffffffffffffffffffffff1673ffffffffffffffffffffffffffffffffffffffff1681526020019081526020016000206000611a8d61051a565b73ffffffffffffffffffffffffffffffffffffffff1673ffffffffffffffffffffffffffffffffffffffff1681526020019081526020016000205461052290919063ffffffff16565b6000808473ffffffffffffffffffffffffffffffffffffffff1673ffffffffffffffffffffffffffffffffffffffff1681526020019081526020016000206000611b1e61051a565b73ffffffffffffffffffffffffffffffffffffffff1673ffffffffffffffffffffffffffffffffffffffff16815260200190815260200160002081905550611bea816000808573ffffffffffffffffffffffffffffffffffffffff1673ffffffffffffffffffffffffffffffffffffffff16815260200190815260200160002060008873ffffffffffffffffffffffffffffffffffffffff1673ffffffffffffffffffffffffffffffffffffffff168152602001908152602001600020546117f290919063ffffffff16565b6000808473ffffffffffffffffffffffffffffffffffffffff1673ffffffffffffffffffffffffffffffffffffffff16815260200190815260200160002060008773ffffffffffffffffffffffffffffffffffffffff1673ffffffffffffffffffffffffffffffffffffffff168152602001908152602001600020819055507f0dddf4182dc0fc1a311cb75f049c97403c6b8a99cf6b2229a36e7c526acb3f81868686868686611c9861051a565b42604051611cad98979695949392919061253b565b60405180910390a1505050505050565b600073ffffffffffffffffffffffffffffffffffffffff82169050919050565b6000611ce882611cbd565b9050919050565b611cf881611cdd565b82525050565b6000819050919050565b611d1181611cfe565b82525050565b6000608082019050611d2c6000830187611cef565b611d396020830186611cef565b611d466040830185611d08565b611d536060830184611d08565b95945050505050565b600080fd5b611d6a81611cfe565b8114611d7557600080fd5b50565b600081359050611d8781611d61565b92915050565b600060208284031215611da357611da2611d5c565b5b6000611db184828501611d78565b91505092915050565b60008115159050919050565b611dcf81611dba565b82525050565b6000602082019050611dea6000830184611dc6565b92915050565b6000602082019050611e056000830184611d08565b92915050565b611e1481611cdd565b8114611e1f57600080fd5b50565b600081359050611e3181611e0b565b92915050565b60008060408385031215611e4e57611e4d611d5c565b5b6000611e5c85828601611e22565b9250506020611e6d85828601611d78565b9150509250929050565b600060e082019050611e8c600083018a611d08565b611e996020830189611cef565b611ea66040830188611cef565b611eb36060830187611cef565b611ec06080830186611d08565b611ecd60a0830185611d08565b611eda60c0830184611d08565b98975050505050505050565b60008060408385031215611efd57611efc611d5c565b5b6000611f0b85828601611e22565b9250506020611f1c85828601611e22565b9150509250929050565b600060208284031215611f3c57611f3b611d5c565b5b6000611f4a84828501611e22565b91505092915050565b60008060008060808587031215611f6d57611f6c611d5c565b5b6000611f7b87828801611e22565b9450506020611f8c87828801611d78565b9350506040611f9d87828801611e22565b9250506060611fae87828801611d78565b91505092959194509250565b7f4e487b7100000000000000000000000000000000000000000000000000000000600052601160045260246000fd5b6000611ff482611cfe565b9150611fff83611cfe565b9250827fffffffffffffffffffffffffffffffffffffffffffffffffffffffffffffffff0382111561203457612033611fba565b5b828201905092915050565b7f4e487b7100000000000000000000000000000000000000000000000000000000600052600160045260246000fd5b600082825260208201905092915050565b7f4d6574686f6420697320666f7220746f6b656e73000000000000000000000000600082015250565b60006120b560148361206e565b91506120c08261207f565b602082019050919050565b600060208201905081810360008301526120e4816120a8565b9050919050565b60006060820190506121006000830186611cef565b61210d6020830185611cef565b61211a6040830184611d08565b949350505050565b61212b81611dba565b811461213657600080fd5b50565b60008151905061214881612122565b92915050565b60006020828403121561216457612163611d5c565b5b600061217284828501612139565b91505092915050565b7f4e6f7420617070726f76656420666f7220616d6f756e74000000000000000000600082015250565b60006121b160178361206e565b91506121bc8261217b565b602082019050919050565b600060208201905081810360008301526121e0816121a4565b9050919050565b7f4e6f7420656e6f7567682065746865722062616c616e63650000000000000000600082015250565b600061221d60188361206e565b9150612228826121e7565b602082019050919050565b6000602082019050818103600083015261224c81612210565b9050919050565b7f4f72646572207769746820696420646f6573206e6f7420657869737400000000600082015250565b6000612289601c8361206e565b915061229482612253565b602082019050919050565b600060208201905081810360008301526122b88161227c565b9050919050565b7f43616e206f6e6c792063616e63656c20796f7572206f776e206f726465720000600082015250565b60006122f5601e8361206e565b9150612300826122bf565b602082019050919050565b60006020820190508181036000830152612324816122e8565b9050919050565b600060e082019050612340600083018a611d08565b61234d6020830189611cef565b61235a6040830188611cef565b6123676060830187611d08565b6123746080830186611cef565b61238160a0830185611d08565b61238e60c0830184611d08565b98975050505050505050565b7f4f726465722069732063616e63656c6c65640000000000000000000000000000600082015250565b60006123d060128361206e565b91506123db8261239a565b602082019050919050565b600060208201905081810360008301526123ff816123c3565b9050919050565b7f4f7264657220697320616c72656164792066696c6c6564000000000000000000600082015250565b600061243c60178361206e565b915061244782612406565b602082019050919050565b6000602082019050818103600083015261246b8161242f565b9050919050565b7f4e6f7420656e6f7567682062616c616e63650000000000000000000000000000600082015250565b60006124a860128361206e565b91506124b382612472565b602082019050919050565b600060208201905081810360008301526124d78161249b565b9050919050565b60006040820190506124f36000830185611cef565b6125006020830184611d08565b9392505050565b600061251282611cfe565b915061251d83611cfe565b9250828210156125305761252f611fba565b5b828203905092915050565b600061010082019050612551600083018b611d08565b61255e602083018a611cef565b61256b6040830189611cef565b6125786060830188611d08565b6125856080830187611cef565b61259260a0830186611d08565b61259f60c0830185611cef565b6125ac60e0830184611d08565b999850505050505050505056fea26469706673582212200ffedecfd9c9174520af765ff5050eff9b1c27e6d7ed7df40c78bfd551da366f64736f6c634300080c0033",
  "immutableReferences": {},
  "source": "pragma solidity ^0.8.0;\r\n\r\nimport \"./ERC20/ERC20.sol\";\r\n\r\nlibrary SafeMath {\r\n    function sub(uint256 a, uint256 b) internal pure returns (uint256) {\r\n      assert(b <= a);\r\n      return a - b;\r\n    }\r\n\r\n    function add(uint256 a, uint256 b) internal pure returns (uint256) {\r\n      uint256 c = a + b;\r\n      assert(c >= a);\r\n      return c;\r\n    }\r\n}\r\n\r\n// TODO - this only supports fully filling an order, would like to add partial fills. Problem is, division is tricky...\r\n// TODO - test creating an order and filling an order. Right now, anybody could create an order, even if they don't have the tokens (in their wallet or in the SC). What happens\r\n//          when executing a trade? I assume an error there. Test first, then fix...make it so can't create an order if you don't have the tokens in the SC?\r\n//          Lol, already addded a description for this just below, nice.\r\n\r\n// With this version of the DEX, and in the github version, anybody can create an order and call the fill orders, even if they have not deposited any funds to the smart contract\r\n//  When the trade function is called, and the balances update (remove/add from seller/buyer), the SafeMath add/sub functions will revert if a number goes -ve, so if\r\n//    somebody did call those functions without any balance, it would revert, and the trade would not happen.\r\n//  However, shouldn't there be a better way? Ensure before the function is called/executed, that both parties have the balance required?\r\n//  Something to test later, and then implement a fix.\r\n\r\ncontract Exchange is Context {\r\n\r\n    using SafeMath for uint;\r\n\r\n    mapping(address => mapping(address => uint)) private tokenBalances; // For each token address, a map of a users address to token balance\r\n    address constant ETHER = address(0); // For ether balances, set token address to null address\r\n\r\n    // Order mappings. Keep track of all orders, and their status of either cancelled or filled. If either cancelled or filled, order is no longer active\r\n    // All public, so have automatic get methods generated.\r\n    mapping(uint => Order) public orders; // Map of an order id to the order struct\r\n    mapping(uint => bool)  public ordersCancelled; // Order id to boolean true if cancelled\r\n    mapping(uint => bool) public ordersFilled; // Order id to boolean true if order fully filled\r\n    uint public orderCount; // Used for id of orders\r\n\r\n    // Events\r\n    event Deposit(address tokenAddress, address userAddress, uint amount, uint balance);\r\n    event Withdraw(address tokenAddress, address userAddress, uint amount, uint balance);\r\n    event NewOrder(uint id, address user, address tokenReceive, uint amountReceive, address tokenGive, uint amountGive, uint timestamp);\r\n    event CancelOrder(uint id, address user, address tokenReceive, uint amountReceive, address tokenGive, uint amountGive, uint timestamp);\r\n    event Trade(uint id, address user, address tokenReceive, uint amountReceive, address tokenGive, uint amountGive, address userFill, uint timestamp); // userFill = taker\r\n\r\n    // Order struct\r\n    struct Order {\r\n      uint id; // ID of order\r\n      address creator; // Address of user who created this order\r\n      address tokenAddressReceive; // Token user wants to receive (buy)\r\n      address tokenAddressGive; // Token user wants to give (sell)\r\n      uint amountReceive; // Amount of token to receive (buy)\r\n      uint amountGive; // Amount of token to give (sell)\r\n      uint timestamp; // unix timestamp, from \"block.timestamp\"\r\n\r\n    }\r\n\r\n    constructor() {\r\n        orderCount = 0; // First order will have id=1. OrderCount will always be equal to the latest order ID.\r\n     }\r\n\r\n    // Fallback function: called if Ether is sent to this contract, and not to a specific method.\r\n    // Used to revert, but made it a depositEther function too. If a user sends ETH straight to this SC, they will increase their sc ETH balance.\r\n    fallback() external payable {\r\n        tokenBalances[ETHER][_msgSender()] = tokenBalances[ETHER][_msgSender()].add(msg.value);\r\n        emit Deposit(ETHER, _msgSender(), msg.value, tokenBalances[ETHER][_msgSender()]);\r\n        //revert();\r\n    }\r\n\r\n    function getEtherBalance(address _userAddress) public view returns (uint) {\r\n        return tokenBalances[ETHER][_userAddress];\r\n    }\r\n\r\n    function getTokenBalance(address _tokenAddress, address _userAddress) public view returns (uint) {\r\n        require(_tokenAddress != ETHER, \"Method is for tokens\");\r\n        return tokenBalances[_tokenAddress][_userAddress];\r\n    }\r\n\r\n    function depositEther() public {\r\n        //tokenBalances[ETHER][_msgSender()] = tokenBalances[ETHER][_msgSender()].add(msg.value);\r\n        //emit Deposit(ETHER, _msgSender(), msg.value, tokenBalances[ETHER][_msgSender()]);\r\n    }\r\n\r\n    function withdrawEther(uint _amount) public {\r\n        require(tokenBalances[ETHER][_msgSender()] >= _amount, \"Not enough ether balance\");\r\n        tokenBalances[ETHER][_msgSender()] = tokenBalances[ETHER][_msgSender()].sub(_amount);\r\n\r\n        payable(_msgSender()).transfer(_amount); // Cast the sender address as a payable address, then call the transfer function, to send the ETH to that address from this SC\r\n\r\n        emit Withdraw(ETHER, _msgSender(), _amount, tokenBalances[ETHER][_msgSender()]);\r\n    }\r\n\r\n    // User calls this function when depositing a token. The token must be approved to spend the amount, before this function is called.\r\n    // This contract will then actually transfer the tokens from the user to this contract, by calling the transferFrom function. \r\n    function depositToken(address _tokenAddress, uint _amount) public {\r\n        require(_tokenAddress != ETHER, \"Method is for tokens\");\r\n        require(ERC20(_tokenAddress).transferFrom(_msgSender(), address(this), _amount), \"Not approved for amount\"); // If works, token is tx'd to this contract\r\n        \r\n        tokenBalances[_tokenAddress][_msgSender()] = tokenBalances[_tokenAddress][_msgSender()].add(_amount);\r\n        \r\n        emit Deposit(_tokenAddress, _msgSender(), _amount, tokenBalances[_tokenAddress][_msgSender()]);\r\n    }\r\n\r\n    function withdrawToken(address _tokenAddress, uint _amount) public {\r\n        require(_tokenAddress != ETHER, \"Method is for tokens\");\r\n        require(tokenBalances[_tokenAddress][_msgSender()] >= _amount, \"Not enough balance\");\r\n\r\n        tokenBalances[_tokenAddress][_msgSender()] = tokenBalances[_tokenAddress][_msgSender()].sub(_amount);\r\n        assert(ERC20(_tokenAddress).transfer(_msgSender(), _amount)); // If doesn't work, revert.\r\n\r\n        emit Withdraw(_tokenAddress, _msgSender(), _amount, tokenBalances[_tokenAddress][_msgSender()]);\r\n    }\r\n\r\n    function createOrder(address _tokenReceive, uint _amountReceive, address _tokenGive, uint _amountGive) public {\r\n        orderCount = orderCount.add(1);\r\n        orders[orderCount] = Order(orderCount, _msgSender(), _tokenReceive, _tokenGive, _amountReceive, _amountGive, block.timestamp);\r\n\r\n        emit NewOrder(orderCount, _msgSender(), _tokenReceive, _amountReceive, _tokenGive, _amountGive, block.timestamp);\r\n    }\r\n\r\n    function cancelOrder(uint _id) public {\r\n        require(_id > 0 && _id <= orderCount, \"Order with id does not exist\"); // Order with that id actually exists\r\n        Order memory _order = orders[_id];\r\n        require(_order.creator == _msgSender(), \"Can only cancel your own order\");\r\n        ordersCancelled[_id] = true;\r\n        \r\n        emit CancelOrder(_id, _msgSender(), _order.tokenAddressReceive, _order.amountReceive, _order.tokenAddressGive, _order.amountGive, block.timestamp);\r\n    }\r\n\r\n    // This function is called by the trade TAKER (executor), not the creator.\r\n    function fillOrder(uint _id) public {\r\n        require(_id > 0 && _id <= orderCount, \"Order with id does not exist\");\r\n        require(!ordersCancelled[_id], \"Order is cancelled\");\r\n        require(!ordersFilled[_id], \"Order is already filled\");\r\n        \r\n        Order storage _order = orders[_id]; // Again, is this costly? Just above we accessed the struct/struct mapping, and now for the second time. Bit redundant...TODO\r\n        _trade(_order.id, _order.creator, _order.tokenAddressReceive, _order.amountReceive, _order.tokenAddressGive, _order.amountGive);\r\n\r\n        ordersFilled[_id] = true;\r\n\r\n    }\r\n\r\n    // This function will be called by the person taking the other side of the trade, that is, not the person who created the order.\r\n    // tokenReceive refers to the token that the person who created the order is receiving, not the person executing this function. \r\n    function _trade(uint _orderId, address orderCreator, address _tokenReceive, uint _amountReceive, address _tokenGive, uint _amountGive) internal {\r\n        tokenBalances[_tokenReceive][_msgSender()] = tokenBalances[_tokenReceive][_msgSender()].sub(_amountReceive); // Executor selling tokenReceive, so reduce their balance\r\n        tokenBalances[_tokenReceive][orderCreator] = tokenBalances[_tokenReceive][orderCreator].add(_amountReceive); // Creator of order is receiving/buying tokenReceive, so increase their balance\r\n\r\n        tokenBalances[_tokenGive][_msgSender()] = tokenBalances[_tokenGive][_msgSender()].add(_amountGive); // Executor buying tokenGive, so increase their balance\r\n        tokenBalances[_tokenGive][orderCreator] = tokenBalances[_tokenGive][orderCreator].sub(_amountGive); // Creator of order is selling tokenGive, so reduce their balance\r\n\r\n        emit Trade(_orderId, orderCreator, _tokenReceive, _amountReceive, _tokenGive, _amountGive, _msgSender(), block.timestamp);\r\n    }\r\n\r\n\r\n}",
  "sourcePath": "C:\\Users\\User\\Desktop\\basic-decentralized-exchange\\contracts\\Exchange.sol",
  "compiler": {
    "name": "solc",
    "version": "0.8.12+commit.f00d7308.Emscripten.clang"
  },
  "schemaVersion": "3.4.4",
  "updatedAt": "2022-03-16T08:50:39.377Z",
  "networkType": "ethereum",
  "devdoc": {
    "kind": "dev",
    "methods": {},
    "version": 1
  },
  "userdoc": {
    "kind": "user",
    "methods": {},
    "version": 1
  }
}