{
  "contractName": "Test",
  "abi": [
    {
      "inputs": [
        {
          "internalType": "address",
          "name": "tokenAddress_",
          "type": "address"
        }
      ],
      "stateMutability": "nonpayable",
      "type": "constructor"
    },
    {
      "inputs": [],
      "name": "amount",
      "outputs": [
        {
          "internalType": "uint256",
          "name": "",
          "type": "uint256"
        }
      ],
      "stateMutability": "view",
      "type": "function",
      "constant": true
    },
    {
      "inputs": [],
      "name": "testStructAccess",
      "outputs": [
        {
          "internalType": "string",
          "name": "",
          "type": "string"
        }
      ],
      "stateMutability": "nonpayable",
      "type": "function"
    },
    {
      "inputs": [],
      "name": "getAmount",
      "outputs": [
        {
          "internalType": "uint256",
          "name": "",
          "type": "uint256"
        }
      ],
      "stateMutability": "view",
      "type": "function",
      "constant": true
    },
    {
      "inputs": [],
      "name": "getTokenName",
      "outputs": [
        {
          "internalType": "string",
          "name": "",
          "type": "string"
        }
      ],
      "stateMutability": "view",
      "type": "function",
      "constant": true
    },
    {
      "inputs": [],
      "name": "getTokenSymbol",
      "outputs": [
        {
          "internalType": "string",
          "name": "",
          "type": "string"
        }
      ],
      "stateMutability": "view",
      "type": "function",
      "constant": true
    }
  ],
  "bytecode": "0x608060405234801561001057600080fd5b5060405161079238038061079283398181016040528101906100329190610144565b806000806101000a81548173ffffffffffffffffffffffffffffffffffffffff021916908373ffffffffffffffffffffffffffffffffffffffff16021790555060008054906101000a900473ffffffffffffffffffffffffffffffffffffffff16600160006101000a81548173ffffffffffffffffffffffffffffffffffffffff021916908373ffffffffffffffffffffffffffffffffffffffff160217905550600060028190555050610171565b600080fd5b600073ffffffffffffffffffffffffffffffffffffffff82169050919050565b6000610111826100e6565b9050919050565b61012181610106565b811461012c57600080fd5b50565b60008151905061013e81610118565b92915050565b60006020828403121561015a576101596100e1565b5b60006101688482850161012f565b91505092915050565b610612806101806000396000f3fe608060405234801561001057600080fd5b50600436106100575760003560e01c8063862b092b1461005c5780639c8813871461007a578063aa8c217c14610098578063d321fe29146100b6578063f1850af8146100d4575b600080fd5b6100646100f2565b6040516100719190610403565b60405180910390f35b61008261018f565b60405161008f9190610403565b60405180910390f35b6100a06102bd565b6040516100ad919061043e565b60405180910390f35b6100be6102c3565b6040516100cb919061043e565b60405180910390f35b6100dc6102cd565b6040516100e99190610403565b60405180910390f35b6060600160009054906101000a900473ffffffffffffffffffffffffffffffffffffffff1673ffffffffffffffffffffffffffffffffffffffff166306fdde036040518163ffffffff1660e01b8152600401600060405180830381865afa158015610161573d6000803e3d6000fd5b505050506040513d6000823e3d601f19601f8201168201806040525081019061018a9190610593565b905090565b6060604051806040016040528060058152602001600073ffffffffffffffffffffffffffffffffffffffff16815250600360008081526020019081526020016000206000820151816000015560208201518160010160006101000a81548173ffffffffffffffffffffffffffffffffffffffff021916908373ffffffffffffffffffffffffffffffffffffffff160217905550905050600560036000808152602001908152602001600020600001541415610281576040518060400160405280600281526020017f353500000000000000000000000000000000000000000000000000000000000081525090506102ba565b6040518060400160405280600181526020017f310000000000000000000000000000000000000000000000000000000000000081525090505b90565b60025481565b6000600254905090565b6060600160009054906101000a900473ffffffffffffffffffffffffffffffffffffffff1673ffffffffffffffffffffffffffffffffffffffff166395d89b416040518163ffffffff1660e01b8152600401600060405180830381865afa15801561033c573d6000803e3d6000fd5b505050506040513d6000823e3d601f19601f820116820180604052508101906103659190610593565b905090565b600081519050919050565b600082825260208201905092915050565b60005b838110156103a4578082015181840152602081019050610389565b838111156103b3576000848401525b50505050565b6000601f19601f8301169050919050565b60006103d58261036a565b6103df8185610375565b93506103ef818560208601610386565b6103f8816103b9565b840191505092915050565b6000602082019050818103600083015261041d81846103ca565b905092915050565b6000819050919050565b61043881610425565b82525050565b6000602082019050610453600083018461042f565b92915050565b6000604051905090565b600080fd5b600080fd5b600080fd5b600080fd5b7f4e487b7100000000000000000000000000000000000000000000000000000000600052604160045260246000fd5b6104af826103b9565b810181811067ffffffffffffffff821117156104ce576104cd610477565b5b80604052505050565b60006104e1610459565b90506104ed82826104a6565b919050565b600067ffffffffffffffff82111561050d5761050c610477565b5b610516826103b9565b9050602081019050919050565b6000610536610531846104f2565b6104d7565b90508281526020810184848401111561055257610551610472565b5b61055d848285610386565b509392505050565b600082601f83011261057a5761057961046d565b5b815161058a848260208601610523565b91505092915050565b6000602082840312156105a9576105a8610463565b5b600082015167ffffffffffffffff8111156105c7576105c6610468565b5b6105d384828501610565565b9150509291505056fea2646970667358221220859ef111220ad211a3285f81a96e7b3610123f272ea88d147b54ea9ed85306a164736f6c634300080c0033",
  "immutableReferences": {},
  "source": "\r\npragma solidity ^0.8.0;\r\n\r\nimport \"./extensions/IERC20Metadata.sol\";\r\n\r\n/*\r\nlibrary SafeMath {\r\n    function sub(uint256 a, uint256 b) internal pure returns (uint256) {\r\n      assert(b <= a);\r\n      return a - b;\r\n    }\r\n\r\n    function add(uint256 a, uint256 b) internal pure returns (uint256) {\r\n      uint256 c = a + b;\r\n      assert(c >= a);\r\n      return c;\r\n    }\r\n}\r\n*/\r\ncontract Test {\r\n    \r\n    //using SafeMath for uint;\r\n\r\n    address tokenAddress;\r\n    IERC20Metadata tokenInterface;\r\n    \r\n    uint public amount;\r\n\r\n    mapping(uint => TestStruct) structMap;\r\n\r\n    struct TestStruct {\r\n        uint a;\r\n        address b;\r\n    }\r\n\r\n    constructor(address tokenAddress_) {\r\n        tokenAddress = tokenAddress_;\r\n        tokenInterface = IERC20Metadata(tokenAddress);\r\n\r\n        amount = 0;\r\n    }\r\n\r\n    function testStructAccess() public returns(string memory) {\r\n        structMap[0] = TestStruct(5, address(0));\r\n\r\n        if(structMap[0].a == 5) {\r\n            return \"55\";\r\n        } else {\r\n            return \"1\";\r\n        }\r\n    }\r\n\r\n    function getAmount() public view returns (uint) {\r\n        return amount;\r\n    }\r\n\r\n    /*\r\n    function testOverflow() public returns (uint){\r\n        uint a = 5;\r\n        uint b = 6;\r\n\r\n        amount = amount.add(1);\r\n\r\n        uint c = a.sub(b); // 5 - 6 = -1, should overflow?\r\n        return c;\r\n    }\r\n    */\r\n\r\n    function getTokenName() public view returns (string memory) {\r\n        return tokenInterface.name();\r\n    }\r\n\r\n    function getTokenSymbol() public view returns (string memory) {\r\n        return tokenInterface.symbol();\r\n    }\r\n\r\n\r\n}\r\n\r\n\r\n",
  "sourcePath": "C:\\Users\\User\\Desktop\\basic-decentralized-exchange\\contracts\\ERC20\\test.sol",
  "compiler": {
    "name": "solc",
    "version": "0.8.12+commit.f00d7308.Emscripten.clang"
  },
  "schemaVersion": "3.4.4",
  "updatedAt": "2022-03-16T08:50:38.472Z",
  "networkType": "ethereum",
  "devdoc": {
    "kind": "dev",
    "methods": {},
    "version": 1
  },
  "userdoc": {
    "kind": "user",
    "methods": {},
    "version": 1
  }
}