{
  "contractName": "MyToken",
  "abi": [
    {
      "inputs": [
        {
          "internalType": "string",
          "name": "name_",
          "type": "string"
        },
        {
          "internalType": "string",
          "name": "symbol_",
          "type": "string"
        }
      ],
      "stateMutability": "nonpayable",
      "type": "constructor"
    },
    {
      "anonymous": false,
      "inputs": [
        {
          "indexed": true,
          "internalType": "address",
          "name": "owner",
          "type": "address"
        },
        {
          "indexed": true,
          "internalType": "address",
          "name": "spender",
          "type": "address"
        },
        {
          "indexed": false,
          "internalType": "uint256",
          "name": "value",
          "type": "uint256"
        }
      ],
      "name": "Approval",
      "type": "event"
    },
    {
      "anonymous": false,
      "inputs": [
        {
          "indexed": true,
          "internalType": "address",
          "name": "from",
          "type": "address"
        },
        {
          "indexed": true,
          "internalType": "address",
          "name": "to",
          "type": "address"
        },
        {
          "indexed": false,
          "internalType": "uint256",
          "name": "value",
          "type": "uint256"
        }
      ],
      "name": "Transfer",
      "type": "event"
    },
    {
      "inputs": [],
      "name": "MAX_SUPPLY",
      "outputs": [
        {
          "internalType": "uint256",
          "name": "",
          "type": "uint256"
        }
      ],
      "stateMutability": "view",
      "type": "function",
      "constant": true
    },
    {
      "inputs": [],
      "name": "mintFreeTokens",
      "outputs": [],
      "stateMutability": "nonpayable",
      "type": "function"
    },
    {
      "inputs": [],
      "name": "name",
      "outputs": [
        {
          "internalType": "string",
          "name": "",
          "type": "string"
        }
      ],
      "stateMutability": "view",
      "type": "function",
      "constant": true
    },
    {
      "inputs": [],
      "name": "symbol",
      "outputs": [
        {
          "internalType": "string",
          "name": "",
          "type": "string"
        }
      ],
      "stateMutability": "view",
      "type": "function",
      "constant": true
    },
    {
      "inputs": [],
      "name": "decimals",
      "outputs": [
        {
          "internalType": "uint8",
          "name": "",
          "type": "uint8"
        }
      ],
      "stateMutability": "view",
      "type": "function",
      "constant": true
    },
    {
      "inputs": [],
      "name": "totalSupply",
      "outputs": [
        {
          "internalType": "uint256",
          "name": "",
          "type": "uint256"
        }
      ],
      "stateMutability": "view",
      "type": "function",
      "constant": true
    },
    {
      "inputs": [
        {
          "internalType": "address",
          "name": "account",
          "type": "address"
        }
      ],
      "name": "balanceOf",
      "outputs": [
        {
          "internalType": "uint256",
          "name": "",
          "type": "uint256"
        }
      ],
      "stateMutability": "view",
      "type": "function",
      "constant": true
    },
    {
      "inputs": [
        {
          "internalType": "address",
          "name": "recipient",
          "type": "address"
        },
        {
          "internalType": "uint256",
          "name": "amount",
          "type": "uint256"
        }
      ],
      "name": "transfer",
      "outputs": [
        {
          "internalType": "bool",
          "name": "",
          "type": "bool"
        }
      ],
      "stateMutability": "nonpayable",
      "type": "function"
    },
    {
      "inputs": [
        {
          "internalType": "address",
          "name": "owner",
          "type": "address"
        },
        {
          "internalType": "address",
          "name": "spender",
          "type": "address"
        }
      ],
      "name": "allowance",
      "outputs": [
        {
          "internalType": "uint256",
          "name": "",
          "type": "uint256"
        }
      ],
      "stateMutability": "view",
      "type": "function",
      "constant": true
    },
    {
      "inputs": [
        {
          "internalType": "address",
          "name": "spender",
          "type": "address"
        },
        {
          "internalType": "uint256",
          "name": "amount",
          "type": "uint256"
        }
      ],
      "name": "approve",
      "outputs": [
        {
          "internalType": "bool",
          "name": "",
          "type": "bool"
        }
      ],
      "stateMutability": "nonpayable",
      "type": "function"
    },
    {
      "inputs": [
        {
          "internalType": "address",
          "name": "spender",
          "type": "address"
        },
        {
          "internalType": "uint256",
          "name": "addedValue",
          "type": "uint256"
        }
      ],
      "name": "increaseAllowance",
      "outputs": [
        {
          "internalType": "bool",
          "name": "",
          "type": "bool"
        }
      ],
      "stateMutability": "nonpayable",
      "type": "function"
    },
    {
      "inputs": [
        {
          "internalType": "address",
          "name": "spender",
          "type": "address"
        },
        {
          "internalType": "uint256",
          "name": "subtractedValue",
          "type": "uint256"
        }
      ],
      "name": "decreaseAllowance",
      "outputs": [
        {
          "internalType": "bool",
          "name": "",
          "type": "bool"
        }
      ],
      "stateMutability": "nonpayable",
      "type": "function"
    },
    {
      "inputs": [
        {
          "internalType": "address",
          "name": "sender",
          "type": "address"
        },
        {
          "internalType": "address",
          "name": "recipient",
          "type": "address"
        },
        {
          "internalType": "uint256",
          "name": "amount",
          "type": "uint256"
        }
      ],
      "name": "transferFrom",
      "outputs": [
        {
          "internalType": "bool",
          "name": "",
          "type": "bool"
        }
      ],
      "stateMutability": "nonpayable",
      "type": "function"
    }
  ],
  "bytecode": "0x60806040526127106005556032600660006101000a81548160ff021916908360ff1602179055503480156200003357600080fd5b5060405162001ddb38038062001ddb83398181016040528101906200005991906200048e565b81600390805190602001906200007192919062000241565b5080600490805190602001906200008a92919062000241565b50620000ae6200009f620000b660201b60201c565b612328620000be60201b60201c565b5050620006bf565b600033905090565b600073ffffffffffffffffffffffffffffffffffffffff168273ffffffffffffffffffffffffffffffffffffffff16141562000131576040517f08c379a0000000000000000000000000000000000000000000000000000000008152600401620001289062000574565b60405180910390fd5b62000145600083836200023760201b60201c565b8060026000828254620001599190620005cf565b92505081905550806000808473ffffffffffffffffffffffffffffffffffffffff1673ffffffffffffffffffffffffffffffffffffffff1681526020019081526020016000206000828254620001b09190620005cf565b925050819055508173ffffffffffffffffffffffffffffffffffffffff16600073ffffffffffffffffffffffffffffffffffffffff167fddf252ad1be2c89b69c2b068fc378daa952ba7f163c4a11628f55a4df523b3ef836040516200021791906200063d565b60405180910390a362000233600083836200023c60201b60201c565b5050565b505050565b505050565b8280546200024f9062000689565b90600052602060002090601f016020900481019282620002735760008555620002bf565b82601f106200028e57805160ff1916838001178555620002bf565b82800160010185558215620002bf579182015b82811115620002be578251825591602001919060010190620002a1565b5b509050620002ce9190620002d2565b5090565b5b80821115620002ed576000816000905550600101620002d3565b5090565b6000604051905090565b600080fd5b600080fd5b600080fd5b600080fd5b6000601f19601f8301169050919050565b7f4e487b7100000000000000000000000000000000000000000000000000000000600052604160045260246000fd5b6200035a826200030f565b810181811067ffffffffffffffff821117156200037c576200037b62000320565b5b80604052505050565b600062000391620002f1565b90506200039f82826200034f565b919050565b600067ffffffffffffffff821115620003c257620003c162000320565b5b620003cd826200030f565b9050602081019050919050565b60005b83811015620003fa578082015181840152602081019050620003dd565b838111156200040a576000848401525b50505050565b6000620004276200042184620003a4565b62000385565b9050828152602081018484840111156200044657620004456200030a565b5b62000453848285620003da565b509392505050565b600082601f83011262000473576200047262000305565b5b81516200048584826020860162000410565b91505092915050565b60008060408385031215620004a857620004a7620002fb565b5b600083015167ffffffffffffffff811115620004c957620004c862000300565b5b620004d7858286016200045b565b925050602083015167ffffffffffffffff811115620004fb57620004fa62000300565b5b62000509858286016200045b565b9150509250929050565b600082825260208201905092915050565b7f45524332303a206d696e7420746f20746865207a65726f206164647265737300600082015250565b60006200055c601f8362000513565b9150620005698262000524565b602082019050919050565b600060208201905081810360008301526200058f816200054d565b9050919050565b6000819050919050565b7f4e487b7100000000000000000000000000000000000000000000000000000000600052601160045260246000fd5b6000620005dc8262000596565b9150620005e98362000596565b9250827fffffffffffffffffffffffffffffffffffffffffffffffffffffffffffffffff03821115620006215762000620620005a0565b5b828201905092915050565b620006378162000596565b82525050565b60006020820190506200065460008301846200062c565b92915050565b7f4e487b7100000000000000000000000000000000000000000000000000000000600052602260045260246000fd5b60006002820490506001821680620006a257607f821691505b60208210811415620006b957620006b86200065a565b5b50919050565b61170c80620006cf6000396000f3fe608060405234801561001057600080fd5b50600436106100cf5760003560e01c8063395093511161008c578063a457c2d711610066578063a457c2d71461022a578063a9059cbb1461025a578063dd62ed3e1461028a578063e92f1857146102ba576100cf565b806339509351146101ac57806370a08231146101dc57806395d89b411461020c576100cf565b806306fdde03146100d4578063095ea7b3146100f257806318160ddd1461012257806323b872dd14610140578063313ce5671461017057806332cb6b0c1461018e575b600080fd5b6100dc6102c4565b6040516100e99190610ea2565b60405180910390f35b61010c60048036038101906101079190610f5d565b610356565b6040516101199190610fb8565b60405180910390f35b61012a610374565b6040516101379190610fe2565b60405180910390f35b61015a60048036038101906101559190610ffd565b61037e565b6040516101679190610fb8565b60405180910390f35b61017861049d565b604051610185919061106c565b60405180910390f35b6101966104a6565b6040516101a39190610fe2565b60405180910390f35b6101c660048036038101906101c19190610f5d565b6104ac565b6040516101d39190610fb8565b60405180910390f35b6101f660048036038101906101f19190611087565b610558565b6040516102039190610fe2565b60405180910390f35b6102146105a0565b6040516102219190610ea2565b60405180910390f35b610244600480360381019061023f9190610f5d565b610632565b6040516102519190610fb8565b60405180910390f35b610274600480360381019061026f9190610f5d565b61071d565b6040516102819190610fb8565b60405180910390f35b6102a4600480360381019061029f91906110b4565b61073b565b6040516102b19190610fe2565b60405180910390f35b6102c26107c2565b005b6060600380546102d390611123565b80601f01602080910402602001604051908101604052809291908181526020018280546102ff90611123565b801561034c5780601f106103215761010080835404028352916020019161034c565b820191906000526020600020905b81548152906001019060200180831161032f57829003601f168201915b5050505050905090565b600061036a61036361084b565b8484610853565b6001905092915050565b6000600254905090565b600080600160008673ffffffffffffffffffffffffffffffffffffffff1673ffffffffffffffffffffffffffffffffffffffff16815260200190815260200160002060006103ca61084b565b73ffffffffffffffffffffffffffffffffffffffff1673ffffffffffffffffffffffffffffffffffffffff1681526020019081526020016000205490507fffffffffffffffffffffffffffffffffffffffffffffffffffffffffffffffff81146104865782811015610471576040517f08c379a0000000000000000000000000000000000000000000000000000000008152600401610468906111c7565b60405180910390fd5b6104858561047d61084b565b858403610853565b5b610491858585610a1e565b60019150509392505050565b60006012905090565b60055481565b600061054e6104b961084b565b8484600160006104c761084b565b73ffffffffffffffffffffffffffffffffffffffff1673ffffffffffffffffffffffffffffffffffffffff16815260200190815260200160002060008873ffffffffffffffffffffffffffffffffffffffff1673ffffffffffffffffffffffffffffffffffffffff168152602001908152602001600020546105499190611216565b610853565b6001905092915050565b60008060008373ffffffffffffffffffffffffffffffffffffffff1673ffffffffffffffffffffffffffffffffffffffff168152602001908152602001600020549050919050565b6060600480546105af90611123565b80601f01602080910402602001604051908101604052809291908181526020018280546105db90611123565b80156106285780601f106105fd57610100808354040283529160200191610628565b820191906000526020600020905b81548152906001019060200180831161060b57829003601f168201915b5050505050905090565b6000806001600061064161084b565b73ffffffffffffffffffffffffffffffffffffffff1673ffffffffffffffffffffffffffffffffffffffff16815260200190815260200160002060008573ffffffffffffffffffffffffffffffffffffffff1673ffffffffffffffffffffffffffffffffffffffff168152602001908152602001600020549050828110156106fe576040517f08c379a00000000000000000000000000000000000000000000000000000000081526004016106f5906112de565b60405180910390fd5b61071261070961084b565b85858403610853565b600191505092915050565b600061073161072a61084b565b8484610a1e565b6001905092915050565b6000600160008473ffffffffffffffffffffffffffffffffffffffff1673ffffffffffffffffffffffffffffffffffffffff16815260200190815260200160002060008373ffffffffffffffffffffffffffffffffffffffff1673ffffffffffffffffffffffffffffffffffffffff16815260200190815260200160002054905092915050565b600554600660009054906101000a900460ff1660ff166002546107e59190611216565b1115610826576040517f08c379a000000000000000000000000000000000000000000000000000000000815260040161081d90611370565b60405180910390fd5b61084961083161084b565b600660009054906101000a900460ff1660ff16610c9f565b565b600033905090565b600073ffffffffffffffffffffffffffffffffffffffff168373ffffffffffffffffffffffffffffffffffffffff1614156108c3576040517f08c379a00000000000000000000000000000000000000000000000000000000081526004016108ba90611402565b60405180910390fd5b600073ffffffffffffffffffffffffffffffffffffffff168273ffffffffffffffffffffffffffffffffffffffff161415610933576040517f08c379a000000000000000000000000000000000000000000000000000000000815260040161092a90611494565b60405180910390fd5b80600160008573ffffffffffffffffffffffffffffffffffffffff1673ffffffffffffffffffffffffffffffffffffffff16815260200190815260200160002060008473ffffffffffffffffffffffffffffffffffffffff1673ffffffffffffffffffffffffffffffffffffffff168152602001908152602001600020819055508173ffffffffffffffffffffffffffffffffffffffff168373ffffffffffffffffffffffffffffffffffffffff167f8c5be1e5ebec7d5bd14f71427d1e84f3dd0314c0f7b2291e5b200ac8c7c3b92583604051610a119190610fe2565b60405180910390a3505050565b600073ffffffffffffffffffffffffffffffffffffffff168373ffffffffffffffffffffffffffffffffffffffff161415610a8e576040517f08c379a0000000000000000000000000000000000000000000000000000000008152600401610a8590611526565b60405180910390fd5b600073ffffffffffffffffffffffffffffffffffffffff168273ffffffffffffffffffffffffffffffffffffffff161415610afe576040517f08c379a0000000000000000000000000000000000000000000000000000000008152600401610af5906115b8565b60405180910390fd5b610b09838383610dff565b60008060008573ffffffffffffffffffffffffffffffffffffffff1673ffffffffffffffffffffffffffffffffffffffff16815260200190815260200160002054905081811015610b8f576040517f08c379a0000000000000000000000000000000000000000000000000000000008152600401610b869061164a565b60405180910390fd5b8181036000808673ffffffffffffffffffffffffffffffffffffffff1673ffffffffffffffffffffffffffffffffffffffff16815260200190815260200160002081905550816000808573ffffffffffffffffffffffffffffffffffffffff1673ffffffffffffffffffffffffffffffffffffffff1681526020019081526020016000206000828254610c229190611216565b925050819055508273ffffffffffffffffffffffffffffffffffffffff168473ffffffffffffffffffffffffffffffffffffffff167fddf252ad1be2c89b69c2b068fc378daa952ba7f163c4a11628f55a4df523b3ef84604051610c869190610fe2565b60405180910390a3610c99848484610e04565b50505050565b600073ffffffffffffffffffffffffffffffffffffffff168273ffffffffffffffffffffffffffffffffffffffff161415610d0f576040517f08c379a0000000000000000000000000000000000000000000000000000000008152600401610d06906116b6565b60405180910390fd5b610d1b60008383610dff565b8060026000828254610d2d9190611216565b92505081905550806000808473ffffffffffffffffffffffffffffffffffffffff1673ffffffffffffffffffffffffffffffffffffffff1681526020019081526020016000206000828254610d829190611216565b925050819055508173ffffffffffffffffffffffffffffffffffffffff16600073ffffffffffffffffffffffffffffffffffffffff167fddf252ad1be2c89b69c2b068fc378daa952ba7f163c4a11628f55a4df523b3ef83604051610de79190610fe2565b60405180910390a3610dfb60008383610e04565b5050565b505050565b505050565b600081519050919050565b600082825260208201905092915050565b60005b83811015610e43578082015181840152602081019050610e28565b83811115610e52576000848401525b50505050565b6000601f19601f8301169050919050565b6000610e7482610e09565b610e7e8185610e14565b9350610e8e818560208601610e25565b610e9781610e58565b840191505092915050565b60006020820190508181036000830152610ebc8184610e69565b905092915050565b600080fd5b600073ffffffffffffffffffffffffffffffffffffffff82169050919050565b6000610ef482610ec9565b9050919050565b610f0481610ee9565b8114610f0f57600080fd5b50565b600081359050610f2181610efb565b92915050565b6000819050919050565b610f3a81610f27565b8114610f4557600080fd5b50565b600081359050610f5781610f31565b92915050565b60008060408385031215610f7457610f73610ec4565b5b6000610f8285828601610f12565b9250506020610f9385828601610f48565b9150509250929050565b60008115159050919050565b610fb281610f9d565b82525050565b6000602082019050610fcd6000830184610fa9565b92915050565b610fdc81610f27565b82525050565b6000602082019050610ff76000830184610fd3565b92915050565b60008060006060848603121561101657611015610ec4565b5b600061102486828701610f12565b935050602061103586828701610f12565b925050604061104686828701610f48565b9150509250925092565b600060ff82169050919050565b61106681611050565b82525050565b6000602082019050611081600083018461105d565b92915050565b60006020828403121561109d5761109c610ec4565b5b60006110ab84828501610f12565b91505092915050565b600080604083850312156110cb576110ca610ec4565b5b60006110d985828601610f12565b92505060206110ea85828601610f12565b9150509250929050565b7f4e487b7100000000000000000000000000000000000000000000000000000000600052602260045260246000fd5b6000600282049050600182168061113b57607f821691505b6020821081141561114f5761114e6110f4565b5b50919050565b7f45524332303a207472616e7366657220616d6f756e742065786365656473206160008201527f6c6c6f77616e6365000000000000000000000000000000000000000000000000602082015250565b60006111b1602883610e14565b91506111bc82611155565b604082019050919050565b600060208201905081810360008301526111e0816111a4565b9050919050565b7f4e487b7100000000000000000000000000000000000000000000000000000000600052601160045260246000fd5b600061122182610f27565b915061122c83610f27565b9250827fffffffffffffffffffffffffffffffffffffffffffffffffffffffffffffffff03821115611261576112606111e7565b5b828201905092915050565b7f45524332303a2064656372656173656420616c6c6f77616e63652062656c6f7760008201527f207a65726f000000000000000000000000000000000000000000000000000000602082015250565b60006112c8602583610e14565b91506112d38261126c565b604082019050919050565b600060208201905081810360008301526112f7816112bb565b9050919050565b7f4d79546f6b656e3a20616c6c20746f6b656e73206d696e74656420616c72656160008201527f6479000000000000000000000000000000000000000000000000000000000000602082015250565b600061135a602283610e14565b9150611365826112fe565b604082019050919050565b600060208201905081810360008301526113898161134d565b9050919050565b7f45524332303a20617070726f76652066726f6d20746865207a65726f2061646460008201527f7265737300000000000000000000000000000000000000000000000000000000602082015250565b60006113ec602483610e14565b91506113f782611390565b604082019050919050565b6000602082019050818103600083015261141b816113df565b9050919050565b7f45524332303a20617070726f766520746f20746865207a65726f20616464726560008201527f7373000000000000000000000000000000000000000000000000000000000000602082015250565b600061147e602283610e14565b915061148982611422565b604082019050919050565b600060208201905081810360008301526114ad81611471565b9050919050565b7f45524332303a207472616e736665722066726f6d20746865207a65726f20616460008201527f6472657373000000000000000000000000000000000000000000000000000000602082015250565b6000611510602583610e14565b915061151b826114b4565b604082019050919050565b6000602082019050818103600083015261153f81611503565b9050919050565b7f45524332303a207472616e7366657220746f20746865207a65726f206164647260008201527f6573730000000000000000000000000000000000000000000000000000000000602082015250565b60006115a2602383610e14565b91506115ad82611546565b604082019050919050565b600060208201905081810360008301526115d181611595565b9050919050565b7f45524332303a207472616e7366657220616d6f756e742065786365656473206260008201527f616c616e63650000000000000000000000000000000000000000000000000000602082015250565b6000611634602683610e14565b915061163f826115d8565b604082019050919050565b6000602082019050818103600083015261166381611627565b9050919050565b7f45524332303a206d696e7420746f20746865207a65726f206164647265737300600082015250565b60006116a0601f83610e14565b91506116ab8261166a565b602082019050919050565b600060208201905081810360008301526116cf81611693565b905091905056fea2646970667358221220e13ba01bfd8541d44ca4ee7de87d1b19b54263145e2818645c798749f4a2dae964736f6c634300080b0033",
  "immutableReferences": {},
  "source": "\n// SPDX-License-Identifier: MIT\npragma solidity ^0.8.0;\n\nimport \"@openzeppelin/contracts/token/ERC20/IERC20.sol\";\nimport \"@openzeppelin/contracts/token/ERC20/extensions/IERC20Metadata.sol\";\nimport \"@openzeppelin/contracts/utils/Context.sol\";\n\ncontract MyToken is Context, IERC20, IERC20Metadata {\n\n  mapping(address => uint256) private _balances;\n\n  mapping(address => mapping(address => uint256)) private _allowances;\n\n  uint256 private _totalSupply;\n\n  string private _name;\n  string private _symbol;\n\n  uint public MAX_SUPPLY = 10000; // only 10,000 tokens will ever exist\n  uint8 private tokenIncrease = 50; // each free mint gives user 50 tokens\n\n  constructor(string memory name_, string memory symbol_) {\n    _name = name_;\n    _symbol = symbol_;\n    // mint tokens\n    _mint(_msgSender(), 9000); // mint 9000 tokens straight away to contract creator\n  }\n\n  function mintFreeTokens() public {\n      require(_totalSupply + tokenIncrease <= MAX_SUPPLY, \"MyToken: all tokens minted already\");\n      _mint(_msgSender(), tokenIncrease);\n  }\n\n  function name() public view virtual override returns (string memory) {\n    return _name;\n  }\n\n  function symbol() public view virtual override returns (string memory) {\n    return _symbol;\n  }\n\n  function decimals() public view virtual override returns (uint8) {\n    return 18;\n  }\n\n  function totalSupply() public view virtual override returns (uint256) {\n    return _totalSupply;\n  }\n\n  function balanceOf(address account) public view virtual override returns (uint256) {\n    return _balances[account];\n  }\n\n  function transfer(address recipient, uint256 amount) public virtual override returns (bool) {\n    _transfer(_msgSender(), recipient, amount);\n    return true;\n  }\n\n  function allowance(address owner, address spender) public view virtual override returns (uint256) {\n    return _allowances[owner][spender]; // returns the amount of tokens spender is allowed to spend\n  }\n\n  function approve(address spender, uint256 amount) public virtual override returns (bool) {\n    _approve(_msgSender(), spender, amount);\n    return true;\n  }\n\n  function _approve(address owner, address spender, uint256 amount) internal virtual {\n    require(owner != address(0), \"ERC20: approve from the zero address\");\n    require(spender != address(0), \"ERC20: approve to the zero address\");\n\n    _allowances[owner][spender] = amount;\n     emit Approval(owner, spender, amount);\n  }\n\n  function increaseAllowance(address spender, uint256 addedValue) public virtual returns (bool) {\n    _approve(_msgSender(), spender, _allowances[_msgSender()][spender] + addedValue);\n    return true;\n  }\n\n  function decreaseAllowance(address spender, uint256 subtractedValue) public virtual returns (bool) {\n    uint256 currentAllowance = _allowances[_msgSender()][spender];\n    require(currentAllowance >= subtractedValue, \"ERC20: decreased allowance below zero\");\n    unchecked {\n      _approve(_msgSender(), spender, currentAllowance - subtractedValue);\n    }\n\n    return true;\n  }\n\n  // This function is called from an address that is approved to spend an amount of 'sender's tokens, and can send to anybody\n  function transferFrom(address sender, address recipient, uint256 amount) public virtual override returns (bool) {\n    uint256 currentAllowance = _allowances[sender][_msgSender()]; // how many tokens the caller is allowed to spend of 'sender's\n    if(currentAllowance != type(uint256).max) {\n      require(currentAllowance >= amount, \"ERC20: transfer amount exceeds allowance\");\n      unchecked {\n         _approve(sender, _msgSender(), currentAllowance - amount); // update the amount spender is allowed to spend of senders\n      }\n    }\n\n    _transfer(sender, recipient, amount);\n    return true;\n  }\n\n  function _transfer(address sender, address recipient, uint256 amount) internal virtual {\n    require(sender != address(0), \"ERC20: transfer from the zero address\");\n    require(recipient != address(0), \"ERC20: transfer to the zero address\");\n\n    _beforeTokenTransfer(sender, recipient, amount);\n\n    uint256 senderBalance = _balances[sender];\n    require(senderBalance >= amount, \"ERC20: transfer amount exceeds balance\");\n    unchecked {\n        _balances[sender] = senderBalance - amount;\n    }\n    _balances[recipient] += amount;\n\n    emit Transfer(sender, recipient, amount);\n\n     _afterTokenTransfer(sender, recipient, amount);\n\n  }\n\n  function _mint(address account, uint256 amount) internal virtual {\n      require(account != address(0), \"ERC20: mint to the zero address\");\n\n       _beforeTokenTransfer(address(0), account, amount);\n\n      _totalSupply += amount;\n      _balances[account] += amount;\n       emit Transfer(address(0), account, amount);\n\n       _afterTokenTransfer(address(0), account, amount);\n  }\n\n  function _burn(address account, uint256 amount) internal virtual {\n      require(account != address(0), \"ERC20: burn from the zero address\");\n\n       _beforeTokenTransfer(account, address(0), amount);\n\n      uint256 accountBalance = _balances[account];\n      require(accountBalance >= amount, \"ERC20: burn amount exceeds balance\");\n      unchecked {\n         _balances[account] = accountBalance - amount;\n      }\n      _totalSupply -= amount;\n\n       emit Transfer(account, address(0), amount);\n\n       _afterTokenTransfer(account, address(0), amount);\n  }\n\n  function _beforeTokenTransfer(address from, address to, uint256 amount) internal virtual { }\n  function _afterTokenTransfer(address from, address to, uint256 amount) internal virtual { }\n\n}\n\n\n",
  "sourcePath": "C:\\Users\\User\\Desktop\\practise-site\\contracts\\MyToken.sol",
  "compiler": {
    "name": "solc",
    "version": "0.8.11+commit.d7f03943.Emscripten.clang"
  },
  "schemaVersion": "3.4.4",
  "updatedAt": "2022-01-24T06:49:47.918Z",
  "networkType": "ethereum",
  "devdoc": {
    "kind": "dev",
    "methods": {
      "allowance(address,address)": {
        "details": "Returns the remaining number of tokens that `spender` will be allowed to spend on behalf of `owner` through {transferFrom}. This is zero by default. This value changes when {approve} or {transferFrom} are called."
      },
      "approve(address,uint256)": {
        "details": "Sets `amount` as the allowance of `spender` over the caller's tokens. Returns a boolean value indicating whether the operation succeeded. IMPORTANT: Beware that changing an allowance with this method brings the risk that someone may use both the old and the new allowance by unfortunate transaction ordering. One possible solution to mitigate this race condition is to first reduce the spender's allowance to 0 and set the desired value afterwards: https://github.com/ethereum/EIPs/issues/20#issuecomment-263524729 Emits an {Approval} event."
      },
      "balanceOf(address)": {
        "details": "Returns the amount of tokens owned by `account`."
      },
      "decimals()": {
        "details": "Returns the decimals places of the token."
      },
      "name()": {
        "details": "Returns the name of the token."
      },
      "symbol()": {
        "details": "Returns the symbol of the token."
      },
      "totalSupply()": {
        "details": "Returns the amount of tokens in existence."
      },
      "transfer(address,uint256)": {
        "details": "Moves `amount` tokens from the caller's account to `recipient`. Returns a boolean value indicating whether the operation succeeded. Emits a {Transfer} event."
      },
      "transferFrom(address,address,uint256)": {
        "details": "Moves `amount` tokens from `sender` to `recipient` using the allowance mechanism. `amount` is then deducted from the caller's allowance. Returns a boolean value indicating whether the operation succeeded. Emits a {Transfer} event."
      }
    },
    "version": 1
  },
  "userdoc": {
    "kind": "user",
    "methods": {},
    "version": 1
  }
}